:040000000DEF00F010
:0400080061EF10F0A4
:06001800FF0003EF12F0EF
:1020000000001F6A1DBE09EF10F007EF10F00FEF80
:1020100010F01C6C1D1ED8B01D2A010E1F6E1BBEB9
:1020200016EF10F014EF10F01CEF10F01A6C1B1EDE
:10203000D8B01B2A010E1F1A216A000E206E1C50F8
:102040001D10D8B426EF10F028EF10F050EF10F06C
:10205000010E1E6E30EF10F0D8901C361D361E2A71
:102060001DAE35EF10F037EF10F02CEF10F0D890D8
:10207000203621361C501A5C1D501B58D8A043EF47
:1020800010F045EF10F04AEF10F01C501A5E1D5092
:102090001B5A2080D8901D321C321E2E37EF10F0B4
:1020A0001F50D8B456EF10F058EF10F05CEF10F05E
:1020B000206C211ED8B0212A20C01AF021C01BF0AC
:1020C00012006F00E8FF18F06F00ECFF19F0390103
:1020D00090AF6DEF10F06FEF10F07AEF10F0A0AF4F
:1020E00074EF10F076EF10F07AEF10F028EC12F0A9
:1020F000AEEF10F091A57FEF10F081EF10F08CEFB4
:1021000010F0A1A586EF10F088EF10F08CEF10F022
:10211000D8EC11F0AEEF10F091A791EF10F093EF23
:1021200010F09EEF10F0A1A798EF10F09AEF10F0CA
:102130009EEF10F090EC12F0AEEF10F093AFA3EF23
:1021400010F0A5EF10F0AEEF10F0A3AFAAEF10F073
:10215000ACEF10F0AEEF10F0A4EC11F0600067F0FF
:10216000FBFF600063F0FAFF1100F00EBA6EBB6A6D
:10217000BC6A3A01426B526B626B0F0EC26EC3684F
:10218000C4682F0E406FEF0E506FDF0E606F416B13
:10219000516B616B816B436953696369446954692D
:1021A0006469080E846F5A6B5B6B6A6B6B6B310EE4
:1021B000056F456B466B476B100E556F100E566FD3
:1021C000576B656B666B676B856B866B876B2C0ECD
:1021D0001A6E250E1B6E000E1C6E63EC12F0390198
:1021E000908F12002904D8A4F8EF10F0FAEF10F045
:1021F0000CEF11F0296ABAB800EF11F003EF11F0FB
:10220000010E04EF11F0000EFF0A236E233ABA50BC
:102210002318EF0B2318BA6E1350D8A412EF11F045
:1022200014EF11F024EF11F0010E136E93EC12F085
:10223000236E23501A6E1B6A1D6A020E1C6E01EC7F
:1022400010F01A5078EC12F087EC12F012003E01F8
:10225000F89FDE6BDF6BE06BE16BE46BE56BEA6BC9
:10226000EC6BF16BF36BF46BD76BF56BF66BF76B99
:10227000F96B180EFA6F100EFB6FFC6BFD6B1F0EE7
:10228000FF6FFE6B000E046E000E056E000E066EF4
:10229000000E246E000E256E000E266E2A6A39018D
:1022A000A1959185A1979197840E3E01F86F120038
:1022B000010E136E040E1A6E250E1B6E000E1C6EA0
:1022C00063EC12F01A0E1A6E250E1B6E000E1C6EB9
:1022D0005CEC12F027EC11F0000E7DEC12F0E20E37
:1022E0001A6E240E1B6E000E1C6E6AEC12F08AEC45
:1022F00012F0CCBA7EEF11F080EF11F079EF11F00F
:102300001200D29A3901A191D280000E1A6E000EED
:102310001B6E000E1C6E55EC12F03901A591D28295
:10232000000E1A6E000E1B6E000E1C6E4EEC12F0AC
:102330003901A79BD284000E1A6E000E1B6E000E90
:102340001C6E47EC12F01200015002100310D8B4BA
:10235000ACEF11F0AEEF11F0BBEF11F002D8BBEF14
:1023600011F00500FA6E0150FD6E0250FE6E035032
:10237000FF6EFA5012003901A39F12000750081097
:102380000910D8B4C6EF11F0C8EF11F0D5EF11F075
:1023900002D8D5EF11F00500FA6E0750FD6E085017
:1023A000FE6E0950FF6EFA5012003A015799120062
:1023B0003901A195045005100610D8B4E2EF11F0D0
:1023C000E4EF11F0F1EF11F002D8F1EF11F0050098
:1023D000FA6E0450FD6E0550FE6E0650FF6EFA5008
:1023E00012001200F30EB76EB66A7F0EB96E2A0E97
:1023F000016E250E026E000E036E3901A39F938FAE
:102400008F0EB86E120000EE24F0070EEE6AE8069A
:10241000FDE1080ED56E000ED66E000ED76E0001DF
:1024200012EF12F01DEC12F0D28E58EC11F0F2EC1B
:1024300010F017EF12F00DEF00F03EEC12F0B5ECDB
:1024400010F027EC11F0F2EC11F081EC11F0120019
:102450003A0157A92EEF12F030EF12F032EF12F0DE
:10246000BEEC11F012003E01F051176E166AEF51EA
:102470001624146E000E1720156E1200600E39011E
:10248000D96FDB6BDD6B080EDF6FDE6B12001AC0DD
:102490000AF01BC00BF01CC00CF012001AC00DF0AB
:1024A0001BC00EF01CC00FF012001AC010F01BC0B1
:1024B00011F01CC012F012001AC001F01BC002F093
:1024C0001CC003F012001AC007F01BC008F01CC0AB
:1024D00009F012001AC004F01BC005F01CC006F081
:1024E000120033EC12F014C027F015C028F01200CF
:1024F000226E60008BF0B7FF12001A6E60006BF066
:10250000F1FE1200000ECBB8010E136E12003E0158
:10251000F8811200390191851200010E296E120016
:0E2520003901A1971200B750120012001200EC
:020000040030CA
:0A0000008FFFF7FF9FFFFFFFFFFFD8
:00000001FF
